:04000000020029329F
:03000B0002009A56
:0100130032BA
:01001B0032B2
:030023000200E7F1
:03003C0002002699
:0300260002003F96
:20003F0053B3DF43B420C29590C20075F001E4120A04D2ACD2AF7589FF5389F0538EF7757D
:20005F008A00758C2CD2A9D2AF754C0075220175080075090A750A0090003875F040120C66
:20007F0089753A01753B00753E01753F0075420175430075460175470080FEC021C0E0C069
:20009F00F0C082C083C007C006C005C004C003C002C001C000C0D075D000C28C852352751E
:2000BF00530090002475F040120321D0D0D000D001D002D003D004D005D006D007D083D0E0
:2000DF0082D0F0D0E0D02132C0E0C0F0C082C083C007C006C005C000C0D075D00010980286
:2000FF0080537401B54C03020184AF99758A00758C2CD28CAE22BE0102800ABE02028025BA
:20011F00BE0432802E752300BF0113E523FE04F523EE2424F8A607752202D2958017752288
:20013F0004D2958010E523FE04F523EE2424F8A6078002D295109902802BE54DFF04F54DF2
:20015F00C3E54D954E4008752300754C008016E54D254FFDE43550FEAF518D828E838FF0C8
:18017F00120CECF599D0D0D000D005D006D007D083D082D0F0D0E03297
:20019700AD82AE83AFF0E54C70FCAC088C4EF54D8D4F8E508F51754C01854F82855083854D
:2001B70051F0120CECF5992285820985830A85F00B7BFF7CFF79007A00A8087F00E824FE6A
:2001D700F8EF34FFFFC3E998EA64808FF063F08095F0504DE92509FDEA350AFEAF0B8D8265
:2001F7008E838FF0120CECFD7F006203EF62047E087F00EB30E0138B00ECC313C813C8FD18
:20021700740168FB74A06DFC8007ECC313CB13CBFC1EBEFF011FEE4F70D909B9009B0A801C
:20023700988B068E077E008C037C00EB4EF582EC4FF5832285820A85830B85F00C7BFF7C40
:20025700FFE50824FEF9E50934FFFAE4F50DF50EC3E50D99E50E64808AF063F08095F05035
:2002770052E50D250AFDE50E350BFEAF0C8D828E838FF0120CECFD7F006203EF62047E08A6
:200297007F00EB30E0138B00ECC313C813C8FD740168FB74A06DFC8007ECC313CB13CBFC8A
:2002B7001EBEFF011FEE4F70D9050DE4B50DA1050E809D8B067F008C057C00E50D250AF9E6
:2002D700E50E350BFAAB0C89828A838BF0120CECF97B00EEB5012FEFB5032B7401250DFEC8
:2002F700E4350EFFEE250AFEEF350BFFAB0C8E828F838BF0120CECFE7F00EDB50608ECB54C
:2003170007047582012275820022AD82AE83AFF08552088553098D828E838FF0C007C0069D
:20033700C00512024BAC82D005D006D007BC015574012DFAE43EFB8F048A828B838CF012CC
:200357000CECFCBC0102801EBC02028038BC03028033BC0402802EBC05028015BC0602803D
:2003770024BC0F2180168D828E838FF01203A380148D828E838FF01206CE80098D828E83A7
:200397008FF01208157522017523002285825485835585F0567408B52302804A74012554B5
:2003B700FAE43555FBAC568A828B838CF0120CECFF4307808A828B838CF0EF120CA8740297
:2003D7002554FDE43555FEAF568D828E838FF07407120CA875080375090085548285558389
:2003F7008556F002019774022554F568E43555F56985566A856882856983856AF0120CEC5B
:20041700FC7B008C678B6674032554FAE43555FBAC568A828B838CF0120CEC7C004566F559
:2004370057EC4567F55874042554FAE43555FBAC568A828B838CF0120CECFA7C008A678C80
:200457006674052554FAE43555FBAC568A828B838CF0120CECFA7C004566FBEC4567FCC3B5
:2004770074FF9557740F9558500122C374149BE49C504174012554FAE43555FEAF568A82C7
:200497008E838FF0120CECFD4305808A828E838FF0ED120CA8856882856983856AF0740361
:2004B700120CA8F5087509008554828555838556F00201978B59ECC423C559C423541F6533
:2004D70059C559541FC5596559C559F55A5303077C008B5B8C5CEB4C60080559E4B559023A
:2004F700055A74012554FBE43555FCAF568B828C838FF07401120CA8AE5985688285698371
:20051700856AF0EE120CA885576385586475660375670085595D855A5EE55D455E70030225
:200537000667C37401955DE4955E40030205D5856368856469E4F55FF560C3E568940AE555
:20055700699400400122E5682568FAE56933EA2438F9870209870519EA4D60027401FDE569
:20057700662554FAE5673555FEAF568A828E838FF0120CECFCAB5F8BF005F0ED800225E022
:20059700D5F0FBFB62048A828E838FF0EC120CA80568E4B568020569856863856964055FF1
:2005B700E4B55F0205607408B55F06E4B56002800280870566E4B56602056702065BAE635F
:2005D700AF64E4F55FF560E55BB55F07E55CB560028069C3EE940AEF9400400122EE2EFA7D
:2005F700EF33EA2438F9870209870519EA4D60027401F565E5662554FAE5673555FCAD5651
:200617008A828C838DF0120CECF568AB5F8BF005F0E565800225E0D5F0FBFBE56862038A82
:20063700828C838DF0EB120CA80EBE00010F8E638F64055FE4B55F8F0560808B0566E4B5C5
:2006570066020567155D74FFB55D02155E020530AB6674022BF5088554828555838556F0DA
:200677001201BFAE82AF8374012566F561E43567F562E5662554FAE5673555FBAD568F04DD
:200697008A828B838DF0EC120CA874012561F508E43562F509E5612554FBE5623555FCAD55
:2006B700568B828C838DF0EE120CA88554828555838556F002019785826B85836C85F06D9B
:2006D7007408B52302804A7401256BFAE4356CFBAC6D8A828B838CF0120CECFF4307808A58
:2006F700828B838CF0EF120CA87402256BFDE4356CFEAF6D8D828E838FF07407120CA8752B
:200717000803750900856B82856C83856DF00201977402256BFDE4356CFEAF6D8D828E8315
:200737008FF0120CECFD7F007403256BFBE4356CFCAE6D8B828C838EF0120CEC7E004FF599
:200757006EEE4DF56F7404256BFBE4356CFCAD6D8B828C838DF0120CECFD7B007405256BB3
:20077700FAE4356CFCAF6D8A828C838FF0120CEC7F004BFEEF4DFFC3E56E940AE56F940088
:20079700400122EE4F6014E56E256EFEE56F33FFEE2438F876FF0876008012E56E256EFE19
:2007B700E56F33FFEE2438F87600087600750808856B82856C83856DF01201BFAE82AF83E5
:2007D7007406256BFBE4356CFCAD6D8F028B828C838DF0EA120CA87407256BFBE4356CFC01
:2007F700AD6D8B828C838DF0EE120CA8750808750900856B82856C83856DF002019785820F
:200817007085837185F07274022570FAE43571FBAC728A828B838CF0120CECFC7A007403BC
:200837002570FBE43571FEAF728B828E838FF0120CEC7F004AF573EF4CF57474042570FBE4
:20085700E43571FCAD728B828C838DF0120CECFD7B0074052570FAE43571FCAF728A828C7A
:20087700838FF0120CEC7F004BF582EF4DF5837508088F09120D08AE8274075EFF8F7560B0
:20089700058E07EF04FEAF737579078E76E5767003020972E5792570FAE43571FBAC728A36
:2008B700828B838CF0120CECF5780579E57624FE50518F03757700BB0A004001228577F070
:2008D70005F07D017E008006ED2DFDEE33FED5F0F7AA787C00EA5205EC5206ED4E600DEBE2
:2008F7002BFE2438F87601087600800BEB2BFE2438F876000876000B8B0705777408B577C7
:20091700B680538F06757700E575B577028047BE0A004001228577F005F07B017C008006DD
:20093700EB2BFBEC33FCD5F0F7AA787D00EA5203ED5204EB4C600DEE2EFD2438F876010807
:200957007600800BEE2EFD2438F876000876000E8E07057780B215760208A475080885701A
:20097700828571838572F01201BFAE82AF8374062570FBE43571FCAD728F028B828C838D61
:20099700F0EA120CA874072570FBE43571FCAD728B828C838DF0EE120CA8750808750900A0
:0C09B7008570828571838572F0020197C3
:2009C300AC82AD83AEF0FF53B1BF53B2BF53B17F53B27F759850438920438780438E1053C4
:2009E300C4DF8C088D098E0A8F0B90424075F00FE4120C24AC820CC3E49CF58DD28ED2997F
:200A030022AC82AD83AEF0FF53B1BF53B2BF53B17F53B27F75985043878053C4F843C4204B
:200A23008C088D098E0A8F0B90424075F00FE4120C24AC82AD83AEF0FF74FFC39C74FF9DCE
:200A4300F9E49EE49F89C674FFC39CFC8CC543C408D299223098FD859982C29822AF82C2B7
:200A6300998F993099FD22AC82AD83AEF0FF53B1FB53B2FB53B3BF53B4BF75F85075C40847
:200A830053C4DF8C088D098E0A8F0B90424075F00FE4120C24AC82AD83AEF0FF74FFC39C88
:200AA30074FF9DF9E49EE49F89C674FFC39CFC8CC543C4082230F8FD859A82C2F822AF82B3
:1E0AC300C2F98F9A30F9FD2275C7AA75C75575FD5A75C7AA75C75575FDA575820022FF
:200AE100AC82AD83AEF0FF538EF7438901D28CEC4D4E4F601A758A7E758CFF108D0280FB10
:200B01001CBCFF091DBDFF051EBEFF011F80E0C28C22AC82AD83AEF0FF538EF7438901D2D9
:200B21008CEC4D4E4F601A758ACA758CFA108D0280FB1CBCFF091DBDFF051EBEFF011F80C1
:200B4100E0C28C22AC82AD83AEF0FF538EEF438910D28EEC4D4E4F601A758BEA758DCB1026
:200B61008F0280FB1CBCFF091DBDFF051EBEFF011F80E0C28E22AC82AD83AEF0FF53C9BF07
:200B810053C9DF43C910D2CAEC4D4E4F601A75CC3075CDF810CF0280FB1CBCFF091DBDFF91
:200BA100051EBEFF011F80E0C2CA22AC82AD83AEF0FF75C40743C408EC4D4E4F602575C547
:200BC1002C75C6CFAAC45302107B00BA10F6BB00F353C4EF1CBCFF091DBDFF051EBEFF0182
:200BE1001F80D553C4F722AC82AD83AEF0FF75C40743C408EC4D4E4F602575C5D875C6FF5F
:200C0100AAC45302107B00BA10F6BB00F353C4EF1CBCFF091DBDFF051EBEFF011F80D553B0
:030C2100C4F722F3
:200C2400FB7A20E4FCFDFEFFE5822582F582E58333F583E5F033F5F0EB33FB4017DAE98009
:200C440042E5822582F582E58333F583E5F033F5F0EB33FBEC33FCED33FDEE33FEEF33FF38
:200C6400EC9508ED9509EE950AEF950B4013EC9508FCED9509FDEE950AFEEF950BFF438202
:050C840001DABEEB22C5
:06003600E478FFF6D8FD9E
:1F0C8900AC82AD83AE09AF0ABE0004EF600C1F0FE508120CA8A3DEFADFF88C828D8322EE
:1B0CA80020F71130F6138883A88220F509F6A8837583002280FEF280F5F0224B
:200CC3007A10E4FBFCE58225E0F582E58333F583EB33FBEC33FCEB9508F5F0EC9509400645
:090CE300FCABF0438201DADD22D2
:0D002900758179120ACBE582600302002682
:1C0CEC0020F71430F6148883A88220F507E6A88375830022E280F7E49322E02217
:200D0800C2D5E58330E70DD2D5E4C39582F582E49583F583E50930E70DB2D5E4C39508F586
:180D280008E49509F509120CC330D50BE4C39582F582E49583F583226F
:00000001FF
